S017000061736D436F6E736F6C6548656C6C6F2E7372656305
S113000071C000008EC000008CC000008AC00000D7
S113001088C0000086C0000084C0000082C00000C8
S113002080C000007EC000007CC000007AC00000D8
S113003078C0000076C0000074C0000072C00000E8
S113004070C000006EC000006CC000006AC00000F8
S113005068C0000066C0000064C0000099C00000D1
S113006060C000005EC000005CC000005AC0000018
S113007058C0000056C0000054C0000052C0000028
S113008050C000004EC000004CC000004AC0000038
S113009048C0000046C0000044C0000042C0000048
S11300A040C000003EC000003CC000003AC0000058
S11300B038C0000036C0000034C0000032C0000068
S11300C030C000002EC000002CC000002AC0000078
S11300D028C0000026C0000024C0000022C0000088
S11300E020C0000011241FBECFEFD1E2DEBFCDBF80
S11300F000E00CBF12E0A0E0B2E0EAEAF3E000E0C6
S11301000BBF02C007900D92A830B107D9F722E0C7
S1130110A8E0B2E001C01D92A131B207E1F72DD0F1
S113012042C16ECF00240092C00088E18093C100D8
S113013086E00092C50087E68093C4000895E0E05D
S1130140F2E021911091C00015FFFCCF2093C6006E
S113015021912223B9F70895417373656D626C7917
S11301602069732066756E0A0D00DCCFE8DF64EF4A
S113017071E080E090E07BC00895B2D0FDDFF5DF50
S1130180C0E0D0E0F3DF2097E9F30E940000FACF4B
S11301901F920F920FB60F9211242F933F938F93B8
S11301A09F93AF93BF938091090290910A02A0910B
S11301B00B02B0910C023091080223E0230F2D377B
S11301C020F40196A11DB11D05C026E8230F029657
S11301D0A11DB11D209308028093090290930A0285
S11301E0A0930B02B0930C0280910D0290910E0229
S11301F0A0910F02B09110020196A11DB11D809330
S11302000D0290930E02A0930F02B0931002BF91BF
S1130210AF919F918F913F912F910F900FBE0F90AF
S11302201F9018953FB7F89480910D0290910E029B
S1130230A0910F02B091100226B5A89B05C02F3FD4
S113024019F00196A11DB11D3FBFBA2FA92F982FF8
S11302508827820F911DA11DB11DBC01CD0142E073
S1130260660F771F881F991F4A95D1F708958F92BB
S11302709F92AF92BF92CF92DF92EF92FF926B0167
S11302807C01D0DF4B015C01C114D104E104F10411
S1130290F1F088D0C7DFDC01CB0188199909AA09DC
S11302A0BB09883E9340A105B10570F321E0C21A51
S11302B0D108E108F10888EE880E83E0981EA11C9D
S11302C0B11CC114D104E104F10421F7DDCFFF9086
S11302D0EF90DF90CF90BF90AF909F908F90089554
S11302E0789484B5826084BD84B5816084BD85B50D
S11302F0826085BD85B5816085BDEEE6F0E08081D4
S113030081608083E1E8F0E01082808182608083F4
S1130310808181608083E0E8F0E080818160808377
S1130320E1EBF0E0808184608083E0EBF0E08081A9
S113033081608083E1E9F0E0808182608083808154
S113034081608083E0E9F0E0808181608083E1EA7C
S1130350F0E0808182608083808181608083E0EA34
S1130360F0E0808181608083E1E2F1E0808182605D
S11303708083808181608083E0E2F1E0808181601C
S11303808083EAE7F0E080818460808380818260FA
S113039080838081816080838081806880831092E3
S10D03A0C10008950895F894FFCFFA
S10B03AA50454C454D4555003A
S9030000FC
